:100000000C945A000C946C000C946C000C946C00D2
:100010000C946C000C946C000C94D3050C946C0044
:100020000C946C000C94DB030C946C000C946C002E
:100030000C946C000C9484030C946C000C946C0075
:100040000C9432030C946C000C9479050C946C00A5
:100050000C946C000C946C000C946C000C946C0070
:100060000C946C000C946C000C946C000C946C0060
:100070000C94A6050C946C000C946C000C946C0011
:100080000C946C000C946C000C946C000C942E047A
:100090000C946C000C946C000C946C000C946C0030
:1000A0000C946C000C946C000C946C000C946C0020
:1000B0000C94850411241FBECFEFD8E0DEBFCDBF66
:1000C00021E0A0E0B1E001C01D92A735B207E1F741
:1000D0000E946E000C94C9060C9400000E94FB055F
:1000E000D1E0C0E000E010E081E591E00E94280648
:1000F00081E00E94080681110CC082E00E9408067F
:100100003D2F2C2F811102C0302F212F832F922FB2
:1001100002C08D2F9C2F880F991F20915301309181
:100120005401822793272091510123FD02C082FFB1
:1001300002C026FF0CC08B7F909354018093530123
:1001400080915301909154010E947F06CDCF84602D
:100150009093540180935301F3CF0E94FB010895C3
:10016000CF93DF93CDB7DEB728970FB6F894DEBFF5
:100170000FBECDBF80E895E2A0E0B0E089839A830E
:10018000AB83BC8383E08D831F8281E08E831886DE
:10019000BE016F5F7F4F80EC90E00E94DC042896E8
:1001A0000FB6F894DEBF0FBECDBFDF91CF9108959B
:1001B0000E94E1000E9483010E94AD000E94B000F5
:1001C0000895EF92FF920F931F93CF93DF93CDB7D4
:1001D000DEB76E970FB6F894DEBF0FBECDBF2BE231
:1001E00030E03A83298382E090E09C838B838D8189
:1001F0008E7F84608D7F8D833F832E8383E090E0AC
:10020000998788878A858E7F84608D7F8A873C87DF
:100210002B8784E090E09E878D878F858E7F84601A
:100220008D7F8F874EE250E0598B488B81E090E0C4
:100230009B8B8A8B8C898E7F84608D7F8C8B5E8B71
:100240004D8B188E1F8A898D8E7F84608D7F898F5C
:100250003B8F2A8F87E090E09D8F8C8F8E8D8E7FD5
:1002600084608D7F8E8F8E010F5F1F4F7E018FE127
:10027000E80EF11CC8010E9448020B5F1F4F0E15CB
:100280001F05C1F76E960FB6F894DEBF0FBECDBF47
:10029000DF91CF911F910F91FF90EF9008958330E0
:1002A000C1F028F4813049F0823069F02AC08530ED
:1002B000E1F0A8F08630F9F024C062E08BE290E033
:1002C0000E94F302089563E08BE290E00E94F30243
:1002D000089564E08BE290E00E94F302089561E0EB
:1002E0008EE290E00E94F302089560E08EE290E0DA
:1002F0000E94F302089567E08BE290E00E94F3020F
:10030000089580E00895CF93DF93CDB7DEB764976B
:100310000FB6F894DEBF0FBECDBF25E230E03A83C2
:1003200029831C821B828D8181608B7F8D7F8D83D1
:100330003F832E8381E090E0998788878A8581605A
:100340008B7F8D7F8A873C872B8782E090E09E871A
:100350008D878F8581608B7F8D7F8F8788E290E08E
:10036000998B888B1B8A1A8A8C8981608B7F8D7F01
:100370008C8BCE0101960E944802CE0106960E9407
:100380004802CE010B960E944802CE0140960E9480
:10039000480264960FB6F894DEBF0FBECDBFDF9162
:1003A000CF910895823081F018F4813031F021C06E
:1003B000833089F08430B1F01CC0462F60E085E2C4
:1003C00090E00E94C9020895462F61E085E290E026
:1003D0000E94C9020895462F62E085E290E00E94E3
:1003E000C9020895462F60E088E290E00E94C902A9
:1003F000089580E008953A983B9880E480937C00CB
:1004000010927B00EEE7F0E0808184608083808141
:100410008860808386E080937A0081E00895CF939E
:10042000DF9300D01F92CDB7DEB781E089831B82B6
:100430001A82CE0101960E94070360EA76E881E005
:1004400090E00E9429020F900F900F90DF91CF91C2
:1004500008959B01AC01E9EBF0E080818E7F808301
:1004600080818D7F808360E070E489E191E00E946B
:10047000A706DA01C9014097A109B109B695A79568
:10048000979587958093B80085E48093BC00089584
:10049000FC018481982F917080FF03C09130E1F1BD
:1004A00076C0428153814F3F510579F1A081B181DE
:1004B0002E9181E090E002C0880F991F4A95E2F7E3
:1004C000809582238C93848182FF0FC0A081B181AB
:1004D0002C9181E090E0028002C0880F991F0A945D
:1004E000E2F7822B8C9381E00895A081B1812C9159
:1004F00081E090E0028002C0880F991F0A94E2F721
:10050000809582238C9381E008950190F081E02D05
:100510003197108281E00895228133812F3F310588
:1005200071F1A081B1813E9181E090E002C0880F1D
:10053000991F2A95E2F7832B8C93848181FF0FC04A
:10054000A081B1812C9181E090E0028002C0880FEF
:10055000991F0A94E2F7822B8C9381E00895A08181
:10056000B1812C9181E090E0028002C0880F991F38
:100570000A94E2F7809582238C9381E0089501909C
:10058000F081E02D31978FEF808381E0089580E046
:100590000895413061F4FC01408121E030E002C067
:1005A000220F331F6A95E2F7242B20831AC04230B2
:1005B00061F4FC01408121E030E002C0220F331FD2
:1005C0006A95E2F7242720830CC0FC01408121E0DA
:1005D00030E002C0220F331F6A95E2F720952423F2
:1005E000208381E008950297FC01208181E090E062
:1005F000062E02C0880F991F0A94E2F730E082238A
:10060000932302C0959587956A95E2F70895FC01BA
:1006100084B1876084B91CBC8081813029F4239A1D
:100620008CB580618CBD04C023988CB58F7E8CBD49
:100630008181813021F48CB580628CBD03C08CB582
:100640008F7D8CBD9CB582818370892B8CBD9DB5BF
:10065000828186958695892B8DBD8CB580648CBDF5
:1006600081E008951F920F920FB60F9211242F93DD
:100670003F934F935F936F937F938F939F93AF932A
:10068000BF93EF93FF93E0E3F1E080819181A2813A
:10069000B3810196A11DB11D80839183A283B38391
:1006A000408151816281738180910C0190910D0193
:1006B000A0910E01B0910F01481759076A077B07F7
:1006C00068F0E0910001F09101010995109230016C
:1006D0001092310110923201109233018091240165
:1006E0009091250186BDFF91EF91BF91AF919F91B0
:1006F0008F917F916F915F914F913F912F910F90CB
:100700000FBE0F901F9018951F920F920FB60F9269
:1007100011242F933F934F935F936F937F938F9306
:100720009F93AF93BF93EF93FF93E0E3F1E0848156
:100730009581A681B7810196A11DB11D8483958302
:10074000A683B783448155816681778180911001AA
:1007500090911101A0911201B0911301481759070E
:100760006A077B0768F0E0910201F09103010995A7
:100770001092340110923501109236011092370117
:10078000E4E2F1E0828193819093850082819381FC
:1007900080938400FF91EF91BF91AF919F918F91D2
:1007A0007F916F915F914F913F912F910F900FBE6D
:1007B0000F901F9018951F920F920FB60F92112451
:1007C0002F933F934F935F936F937F938F939F9359
:1007D000AF93BF93EF93FF93E0E3F1E080859185C2
:1007E000A285B3850196A11DB11D80879187A2873F
:1007F000B3874085518562857385809114019091FE
:100800001501A0911601B0911701481759076A0701
:100810007B0768F0E0910401F091050109951092C1
:1008200038011092390110923A0110923B018091E7
:100830002801909129018093B200FF91EF91BF911F
:10084000AF919F918F917F916F915F914F913F9168
:100850002F910F900FBE0F901F9018951F920F921F
:100860000FB60F9211242F933F934F935F936F9383
:100870007F938F939F93AF93BF93EF93FF93E0E3A7
:10088000F1E084859585A685B7850196A11DB11DEA
:1008900084879587A687B78744855585668577853C
:1008A0008091180190911901A0911A01B0911B013A
:1008B000481759076A077B0768F0E0910601F09135
:1008C0000701099510923C0110923D0110923E01E2
:1008D00010923F01E4E2F1E08681978190939500C8
:1008E0008681978180939400FF91EF91BF91AF91A2
:1008F0009F918F917F916F915F914F913F912F9138
:100900000F900FBE0F901F9018951F920F920FB669
:100910000F9211242F933F934F935F936F937F9385
:100920008F939F93AF93BF93EF93FF93E0E3F1E037
:1009300080899189A289B3890196A11DB11D808BFF
:10094000918BA28BB38B4089518962897389809185
:100950001C0190911D01A0911E01B0911F0148172B
:1009600059076A077B0768F0E0910801F0910901D7
:10097000099510924001109241011092420110928B
:100980004301E4E2F1E0808591859093A5008085A4
:1009900091858093A400FF91EF91BF91AF919F91BA
:1009A0008F917F916F915F914F913F912F910F9018
:1009B0000FBE0F901F9018950F931F93CF93DF9347
:1009C000EC018B01FB0180819181A281B381880FB1
:1009D000991FAA1FBB1F880F991FAA1FBB1F9C012D
:1009E000AD01220F331F441F551F220F331F441F19
:1009F000551F60E070E489E191E00E94A706215054
:100A000031093D832C83898188618983F80186813E
:100A1000823041F0833069F0811112C08A818F7C6D
:100A20008A8311C08A818F7E8A838A8180628A83C9
:100A30000AC08A8180618A838A8180628A8303C036
:100A40008A818F7C8A83F80184818230C1F028F406
:100A5000882341F0813061F020C08330B9F08730C5
:100A600011F11BC08A81897F8A838A818A831BC096
:100A70008A81897F8A838A8182608A8314C08A817D
:100A8000897F8A838A8184608A830DC08A81897F75
:100A90008A838A8186608A8306C08A81897F8A8365
:100AA0008A8186608A83F8018581882319F08130E4
:100AB00029F008C08A81877F8A8307C08A8188607D
:100AC0008A8303C08A81877F8A83F8018781813086
:100AD00021F489818068898303C089818F77898324
:100AE00081E0DF91CF911F910F910895FC0109954D
:100AF00008951F920F920FB60F9211242F933F93D8
:100B00004F935F936F937F938F939F93AF93BF9315
:100B1000EF93FF938091480190914901009719F05C
:100B20000E94760502C08091C600FF91EF91BF91AF
:100B3000AF919F918F917F916F915F914F913F9175
:100B40002F910F900FBE0F901F9018951F920F922C
:100B50000FB60F9211242F933F934F935F936F9390
:100B60007F938F939F93AF93BF93EF93FF93809166
:100B70004A0190914B01009719F00E94760502C03E
:100B80008091CE00FF91EF91BF91AF919F918F9196
:100B90007F916F915F914F913F912F910F900FBE79
:100BA0000F901F9018951F920F920FB60F9211245D
:100BB0002F933F934F935F936F937F938F939F9365
:100BC000AF93BF93EF93FF93E0915501F0915601DE
:100BD0000995A895FF91EF91BF91AF919F918F914A
:100BE0007F916F915F914F913F912F910F900FBE29
:100BF0000F901F901895109252011092510110926F
:100C00005401109253010E94D8000E940F020895CF
:100C100021E030E0082E02C0220F331F0A94E2F7D1
:100C200040915101509152012423352302C0369541
:100C300027958A95E2F7213039F481E090915001AF
:100C4000992319F080E001C080E0209350010895BD
:100C5000EF92FF920F931F93CF93DF938C01C1E02C
:100C6000D0E0EE24E394F12C8C2F0E944F018130D0
:100C700081F4F80120813181C7010C2E02C0880F58
:100C8000991F0A94E2F7822B932BF80191838083BA
:100C900025C08C2F0E944F01823081F4F801208101
:100CA0003181C7010C2E02C0880F991F0A94E2F708
:100CB00082279327F8019183808310C0C7010C2EEF
:100CC00002C0880F991F0A94E2F780959095F80169
:100CD0002081318182239323918380832196C730A1
:100CE000D10511F68FEF95E30197F1F700C00000F1
:100CF000DF91CF911F910F91FF90EF900895EF92A8
:100D0000FF920F931F93CF93DF937C01C0E0D0E05D
:100D100001E010E0B8018C2F0C2E02C0660F771F87
:100D20000A94E2F76E217F210C2E02C0769567951A
:100D30000A94E2F70E94D2012196C630D10551F7FC
:100D4000DF91CF911F910F91FF90EF900895A1E255
:100D50001A2EAA1BBB1BFD010DC0AA1FBB1FEE1F35
:100D6000FF1FA217B307E407F50720F0A21BB30B80
:100D7000E40BF50B661F771F881F991F1A9469F7FC
:100D800060957095809590959B01AC01BD01CF0158
:060D90000895F894FFCF66
:00000001FF
